{
  "contractName": "RecordService",
  "abi": [
    {
      "anonymous": false,
      "inputs": [
        {
          "indexed": false,
          "name": "id",
          "type": "uint256"
        },
        {
          "indexed": false,
          "name": "owner",
          "type": "address"
        },
        {
          "indexed": false,
          "name": "ipfsCid",
          "type": "string"
        },
        {
          "indexed": false,
          "name": "index",
          "type": "uint256"
        },
        {
          "indexed": false,
          "name": "eventType",
          "type": "string"
        }
      ],
      "name": "RecordEvent",
      "type": "event",
      "signature": "0x050a6f24947f7fed7d2d6fe904ff10e1cfbee598adc5c40655e61383e60d2b0d"
    },
    {
      "constant": false,
      "inputs": [
        {
          "name": "_ipfsCid",
          "type": "string"
        }
      ],
      "name": "create",
      "outputs": [
        {
          "name": "id",
          "type": "uint256"
        }
      ],
      "payable": false,
      "stateMutability": "nonpayable",
      "type": "function",
      "signature": "0xb6a46b3b"
    },
    {
      "constant": true,
      "inputs": [
        {
          "name": "_id",
          "type": "uint256"
        }
      ],
      "name": "read",
      "outputs": [
        {
          "name": "id",
          "type": "uint256"
        },
        {
          "name": "owner",
          "type": "address"
        },
        {
          "name": "ipfsCid",
          "type": "string"
        },
        {
          "name": "index",
          "type": "uint256"
        }
      ],
      "payable": false,
      "stateMutability": "view",
      "type": "function",
      "signature": "0xed2e5a97"
    },
    {
      "constant": false,
      "inputs": [
        {
          "name": "_id",
          "type": "uint256"
        },
        {
          "name": "_ipfsCid",
          "type": "string"
        }
      ],
      "name": "update",
      "outputs": [],
      "payable": false,
      "stateMutability": "nonpayable",
      "type": "function",
      "signature": "0xf745630f"
    },
    {
      "constant": true,
      "inputs": [],
      "name": "count",
      "outputs": [
        {
          "name": "theCount",
          "type": "uint256"
        }
      ],
      "payable": false,
      "stateMutability": "view",
      "type": "function",
      "signature": "0x06661abd"
    },
    {
      "constant": true,
      "inputs": [
        {
          "name": "_index",
          "type": "uint256"
        }
      ],
      "name": "readByIndex",
      "outputs": [
        {
          "name": "id",
          "type": "uint256"
        },
        {
          "name": "owner",
          "type": "address"
        },
        {
          "name": "ipfsCid",
          "type": "string"
        },
        {
          "name": "index",
          "type": "uint256"
        }
      ],
      "payable": false,
      "stateMutability": "view",
      "type": "function",
      "signature": "0x93c4dee9"
    }
  ],
  "bytecode": "0x608060405234801561001057600080fd5b50610da6806100206000396000f3fe60806040526004361061006d576000357c0100000000000000000000000000000000000000000000000000000000900463ffffffff16806306661abd1461007257806393c4dee91461009d578063b6a46b3b14610192578063ed2e5a971461022c578063f745630f14610321575b600080fd5b34801561007e57600080fd5b506100876103b1565b6040518082815260200191505060405180910390f35b3480156100a957600080fd5b506100d6600480360360208110156100c057600080fd5b81019080803590602001909291905050506103be565b604051808581526020018473ffffffffffffffffffffffffffffffffffffffff1673ffffffffffffffffffffffffffffffffffffffff16815260200180602001838152602001828103825284818151815260200191508051906020019080838360005b83811015610154578082015181840152602081019050610139565b50505050905090810190601f1680156101815780820380516001836020036101000a031916815260200191505b509550505050505060405180910390f35b34801561019e57600080fd5b50610216600480360360208110156101b557600080fd5b81019080803590602001906401000000008111156101d257600080fd5b8201836020820111156101e457600080fd5b8035906020019184600183028401116401000000008311171561020657600080fd5b90919293919293905050506104f1565b6040518082815260200191505060405180910390f35b34801561023857600080fd5b506102656004803603602081101561024f57600080fd5b810190808035906020019092919050505061082c565b604051808581526020018473ffffffffffffffffffffffffffffffffffffffff1673ffffffffffffffffffffffffffffffffffffffff16815260200180602001838152602001828103825284818151815260200191508051906020019080838360005b838110156102e35780820151818401526020810190506102c8565b50505050905090810190601f1680156103105780820380516001836020036101000a031916815260200191505b509550505050505060405180910390f35b34801561032d57600080fd5b506103af6004803603604081101561034457600080fd5b81019080803590602001909291908035906020019064010000000081111561036b57600080fd5b82018360208201111561037d57600080fd5b8035906020019184600183028401116401000000008311171561039f57600080fd5b9091929391929390505050610927565b005b6000600180549050905090565b6000806060600060018054905085101515610441576040517f08c379a00000000000000000000000000000000000000000000000000000000081526004018080602001828103825260128152602001807f4e6f207265636f726420617420696e646578000000000000000000000000000081525060200191505060405180910390fd5b600060018681548110151561045257fe5b90600052602060002001549050600081101515156104d8576040517f08c379a00000000000000000000000000000000000000000000000000000000081526004018080602001828103825260138152602001807f496e76616c696420696420617420696e6465780000000000000000000000000081525060200191505060405180910390fd5b6104e18161082c565b9450945094509450509193509193565b600060026000815480929190600101919050555061050d610c16565b60806040519081016040528060025481526020013373ffffffffffffffffffffffffffffffffffffffff16815260200185858080601f016020809104026020016040519081016040528093929190818152602001838380828437600081840152601f19601f820116905080830192505050505050508152602001600180549050815250905080600080836000015181526020019081526020016000206000820151816000015560208201518160010160006101000a81548173ffffffffffffffffffffffffffffffffffffffff021916908373ffffffffffffffffffffffffffffffffffffffff1602179055506040820151816002019080519060200190610616929190610c55565b50606082015181600301559050506001816000015190806001815401808255809150509060018203906000526020600020016000909192909190915055507f050a6f24947f7fed7d2d6fe904ff10e1cfbee598adc5c40655e61383e60d2b0d60008083600001518152602001908152602001600020600001546000808460000151815260200190815260200160002060010160009054906101000a900473ffffffffffffffffffffffffffffffffffffffff16600080856000015181526020019081526020016000206002016000808660000151815260200190815260200160002060030154604051808581526020018473ffffffffffffffffffffffffffffffffffffffff1673ffffffffffffffffffffffffffffffffffffffff16815260200180602001838152602001806020018381038352858181546001816001161561010002031660029004815260200191508054600181600116156101000203166002900480156107c75780601f1061079c576101008083540402835291602001916107c7565b820191906000526020600020905b8154815290600101906020018083116107aa57829003601f168201915b5050838103825260038152602001807f4e45570000000000000000000000000000000000000000000000000000000000815250602001965050505050505060405180910390a16000808381526020019081526020016000206000015491505092915050565b6000806060600080600080878152602001908152602001600020905080600001548160010160009054906101000a900473ffffffffffffffffffffffffffffffffffffffff16826002018360030154818054600181600116156101000203166002900480601f0160208091040260200160405190810160405280929190818152602001828054600181600116156101000203166002900480156109105780601f106108e557610100808354040283529160200191610910565b820191906000526020600020905b8154815290600101906020018083116108f357829003601f168201915b505050505091509450945094509450509193509193565b600080600085815260200190815260200160002090503373ffffffffffffffffffffffffffffffffffffffff168160010160009054906101000a900473ffffffffffffffffffffffffffffffffffffffff1673ffffffffffffffffffffffffffffffffffffffff16141515610a04576040517f08c379a00000000000000000000000000000000000000000000000000000000081526004018080602001828103825260198152602001807f596f7520646f6e2774206f776e2074686973207265636f72640000000000000081525060200191505060405180910390fd5b82826040518083838082843780830192505050925050506040518091039020816002016040518082805460018160011615610100020316600290048015610a825780601f10610a60576101008083540402835291820191610a82565b820191906000526020600020905b815481529060010190602001808311610a6e575b50509150506040518091039020141515610c10578282826002019190610aa9929190610cd5565b507f050a6f24947f7fed7d2d6fe904ff10e1cfbee598adc5c40655e61383e60d2b0d81600001548260010160009054906101000a900473ffffffffffffffffffffffffffffffffffffffff16836002018460030154604051808581526020018473ffffffffffffffffffffffffffffffffffffffff1673ffffffffffffffffffffffffffffffffffffffff1681526020018060200183815260200180602001838103835285818154600181600116156101000203166002900481526020019150805460018160011615610100020316600290048015610bc95780601f10610b9e57610100808354040283529160200191610bc9565b820191906000526020600020905b815481529060010190602001808311610bac57829003601f168201915b5050838103825260068152602001807f5550444154450000000000000000000000000000000000000000000000000000815250602001965050505050505060405180910390a15b50505050565b60806040519081016040528060008152602001600073ffffffffffffffffffffffffffffffffffffffff16815260200160608152602001600081525090565b828054600181600116156101000203166002900490600052602060002090601f016020900481019282601f10610c9657805160ff1916838001178555610cc4565b82800160010185558215610cc4579182015b82811115610cc3578251825591602001919060010190610ca8565b5b509050610cd19190610d55565b5090565b828054600181600116156101000203166002900490600052602060002090601f016020900481019282601f10610d1657803560ff1916838001178555610d44565b82800160010185558215610d44579182015b82811115610d43578235825591602001919060010190610d28565b5b509050610d519190610d55565b5090565b610d7791905b80821115610d73576000816000905550600101610d5b565b5090565b9056fea165627a7a72305820982db66d6aa769ae384cd36a8a63db8ed9b29ec6b7e6874fe33c90690e9cc1790029",
  "source": "pragma solidity ^0.5.0;\n\ncontract RecordService {\n\n    struct Record {\n        uint256 id;\n        address owner;\n        string ipfsCid;\n        uint256 index;\n    }\n\n    event RecordEvent (\n        uint256 id,\n        address owner,\n        string ipfsCid,\n        uint256 index,\n        string eventType\n    );\n\n\n\n    mapping(uint256 => Record) private recordMapping;\n\n    //An unordered index of the items that are active.\n    uint256[] private recordIndex;\n\n    //Don't want to reuse ids so just keep counting forever.\n    uint256 private nextId;\n\n\n    function create(string calldata _ipfsCid) external returns (uint256 id) {\n        \n        nextId++;\n\n        Record memory record = Record({\n            id : nextId,\n            owner: msg.sender,\n            ipfsCid : _ipfsCid,\n            index: recordIndex.length\n        });\n\n        //Put item in mapping\n        recordMapping[record.id] = record;\n\n\n        //Put id in index\n        recordIndex.push(record.id);\n\n\n        emit RecordEvent(\n            recordMapping[record.id].id,\n            recordMapping[record.id].owner,\n            recordMapping[record.id].ipfsCid,\n            recordMapping[record.id].index,\n            \"NEW\"\n        );\n\n\n        return recordMapping[id].id;\n    }\n\n    function read(uint256 _id) public view returns (uint256 id, address owner, string memory ipfsCid, uint256 index ) {\n\n        Record storage record = recordMapping[_id];\n\n        return (record.id, record.owner, record.ipfsCid, record.index);\n    }\n\n    function update(uint256 _id, string calldata _ipfsCid) external {\n\n        Record storage record = recordMapping[_id];\n\n        require(record.owner == msg.sender, \"You don't own this record\");\n\n        if (keccak256(bytes(record.ipfsCid)) != keccak256(bytes(_ipfsCid))) {\n            record.ipfsCid = _ipfsCid;\n\n            emit RecordEvent(\n                record.id,\n                record.owner,\n                record.ipfsCid,\n                record.index,\n                \"UPDATE\"\n            );   \n        }\n    }\n\n\n    //Paging functionality\n    function count() external view returns (uint256 theCount) {\n        return recordIndex.length;\n    }\n\n    function readByIndex(uint256 _index) external view returns (uint256 id, address owner, string memory ipfsCid, uint256 index) {\n        \n        require(_index < recordIndex.length, \"No record at index\");\n\n        uint256 idAtIndex = recordIndex[_index];\n\n        require(idAtIndex >= 0, \"Invalid id at index\");\n\n        return read(idAtIndex);\n    }\n\n}\n\n\n",
  "sourcePath": "/home/ptoner/repos/solidity-storage-service/contracts/RecordService.sol",
  "compiler": {
    "name": "solc",
    "version": "0.5.0+commit.1d4f565a.Emscripten.clang"
  },
  "schemaVersion": "3.0.0-beta.2",
  "updatedAt": "2018-12-01T12:59:20.653Z",
  "devdoc": {
    "methods": {}
  },
  "userdoc": {
    "methods": {}
  }
}