{
  "contractName": "StorageService",
  "abi": [
    {
      "anonymous": false,
      "inputs": [
        {
          "indexed": false,
          "name": "id",
          "type": "uint256"
        },
        {
          "indexed": false,
          "name": "owner",
          "type": "address"
        },
        {
          "indexed": false,
          "name": "ipfsHash",
          "type": "string"
        },
        {
          "indexed": false,
          "name": "index",
          "type": "uint256"
        },
        {
          "indexed": false,
          "name": "eventType",
          "type": "string"
        }
      ],
      "name": "ItemEvent",
      "type": "event",
      "signature": "0xab484e745e3e997414095302f305a283143a3d3fcca3e7a3344ac09362384b63"
    },
    {
      "constant": false,
      "inputs": [
        {
          "name": "_ipfsHash",
          "type": "string"
        }
      ],
      "name": "create",
      "outputs": [
        {
          "name": "id",
          "type": "uint256"
        }
      ],
      "payable": false,
      "stateMutability": "nonpayable",
      "type": "function",
      "signature": "0xb6a46b3b"
    },
    {
      "constant": true,
      "inputs": [
        {
          "name": "_id",
          "type": "uint256"
        }
      ],
      "name": "read",
      "outputs": [
        {
          "name": "owner",
          "type": "address"
        },
        {
          "name": "ipfsHash",
          "type": "string"
        }
      ],
      "payable": false,
      "stateMutability": "view",
      "type": "function",
      "signature": "0xed2e5a97"
    },
    {
      "constant": false,
      "inputs": [
        {
          "name": "_id",
          "type": "uint256"
        },
        {
          "name": "_ipfsHash",
          "type": "string"
        }
      ],
      "name": "update",
      "outputs": [],
      "payable": false,
      "stateMutability": "nonpayable",
      "type": "function",
      "signature": "0xf745630f"
    },
    {
      "constant": true,
      "inputs": [],
      "name": "count",
      "outputs": [
        {
          "name": "theCount",
          "type": "uint256"
        }
      ],
      "payable": false,
      "stateMutability": "view",
      "type": "function",
      "signature": "0x06661abd"
    },
    {
      "constant": true,
      "inputs": [
        {
          "name": "_index",
          "type": "uint256"
        }
      ],
      "name": "readByIndex",
      "outputs": [
        {
          "name": "owner",
          "type": "address"
        },
        {
          "name": "ipfsHash",
          "type": "string"
        }
      ],
      "payable": false,
      "stateMutability": "view",
      "type": "function",
      "signature": "0x93c4dee9"
    }
  ],
  "bytecode": "0x608060405234801561001057600080fd5b50610cdf806100206000396000f3fe60806040526004361061006d576000357c0100000000000000000000000000000000000000000000000000000000900463ffffffff16806306661abd1461007257806393c4dee91461009d578063b6a46b3b14610184578063ed2e5a971461021e578063f745630f14610305575b600080fd5b34801561007e57600080fd5b50610087610395565b6040518082815260200191505060405180910390f35b3480156100a957600080fd5b506100d6600480360360208110156100c057600080fd5b81019080803590602001909291905050506103a2565b604051808373ffffffffffffffffffffffffffffffffffffffff1673ffffffffffffffffffffffffffffffffffffffff16815260200180602001828103825283818151815260200191508051906020019080838360005b8381101561014857808201518184015260208101905061012d565b50505050905090810190601f1680156101755780820380516001836020036101000a031916815260200191505b50935050505060405180910390f35b34801561019057600080fd5b50610208600480360360208110156101a757600080fd5b81019080803590602001906401000000008111156101c457600080fd5b8201836020820111156101d657600080fd5b803590602001918460018302840111640100000000831117156101f857600080fd5b90919293919293905050506104cc565b6040518082815260200191505060405180910390f35b34801561022a57600080fd5b506102576004803603602081101561024157600080fd5b81019080803590602001909291905050506107ef565b604051808373ffffffffffffffffffffffffffffffffffffffff1673ffffffffffffffffffffffffffffffffffffffff16815260200180602001828103825283818151815260200191508051906020019080838360005b838110156102c95780820151818401526020810190506102ae565b50505050905090810190601f1680156102f65780820380516001836020036101000a031916815260200191505b50935050505060405180910390f35b34801561031157600080fd5b506103936004803603604081101561032857600080fd5b81019080803590602001909291908035906020019064010000000081111561034f57600080fd5b82018360208201111561036157600080fd5b8035906020019184600183028401116401000000008311171561038357600080fd5b90919293919293905050506108d8565b005b6000600180549050905090565b6000606060018054905083101515610422576040517f08c379a00000000000000000000000000000000000000000000000000000000081526004018080602001828103825260108152602001807f4e6f206974656d20617420696e6465780000000000000000000000000000000081525060200191505060405180910390fd5b600060018481548110151561043357fe5b90600052602060002001549050600081101515156104b9576040517f08c379a00000000000000000000000000000000000000000000000000000000081526004018080602001828103825260138152602001807f496e76616c696420696420617420696e6465780000000000000000000000000081525060200191505060405180910390fd5b6104c2816107ef565b9250925050915091565b60006002600081548092919060010191905055506104e8610b4f565b60806040519081016040528060025481526020013373ffffffffffffffffffffffffffffffffffffffff16815260200185858080601f016020809104026020016040519081016040528093929190818152602001838380828437600081840152601f19601f8201169050808301925050505050505081526020016001805490508152509050806000808481526020019081526020016000206000820151816000015560208201518160010160006101000a81548173ffffffffffffffffffffffffffffffffffffffff021916908373ffffffffffffffffffffffffffffffffffffffff16021790555060408201518160020190805190602001906105ed929190610b8e565b506060820151816003015590505060018290806001815401808255809150509060018203906000526020600020016000909192909190915055507fab484e745e3e997414095302f305a283143a3d3fcca3e7a3344ac09362384b636000808481526020019081526020016000206000015460008085815260200190815260200160002060010160009054906101000a900473ffffffffffffffffffffffffffffffffffffffff1660008086815260200190815260200160002060020160008087815260200190815260200160002060030154604051808581526020018473ffffffffffffffffffffffffffffffffffffffff1673ffffffffffffffffffffffffffffffffffffffff168152602001806020018381526020018060200183810383528581815460018160011615610100020316600290048152602001915080546001816001161561010002031660029004801561078a5780601f1061075f5761010080835404028352916020019161078a565b820191906000526020600020905b81548152906001019060200180831161076d57829003601f168201915b5050838103825260038152602001807f4e45570000000000000000000000000000000000000000000000000000000000815250602001965050505050505060405180910390a16000808381526020019081526020016000206000015491505092915050565b60006060600080600085815260200190815260200160002090508060010160009054906101000a900473ffffffffffffffffffffffffffffffffffffffff1681600201808054600181600116156101000203166002900480601f0160208091040260200160405190810160405280929190818152602001828054600181600116156101000203166002900480156108c75780601f1061089c576101008083540402835291602001916108c7565b820191906000526020600020905b8154815290600101906020018083116108aa57829003601f168201915b505050505090509250925050915091565b8181604051808383808284378083019250505092505050604051809103902060008085815260200190815260200160002060020160405180828054600181600116156101000203166002900480156109675780601f10610945576101008083540402835291820191610967565b820191906000526020600020905b815481529060010190602001808311610953575b50509150506040518091039020141515610b4a578181600080868152602001908152602001600020600201919061099f929190610c0e565b507fab484e745e3e997414095302f305a283143a3d3fcca3e7a3344ac09362384b636000808581526020019081526020016000206000015460008086815260200190815260200160002060010160009054906101000a900473ffffffffffffffffffffffffffffffffffffffff1660008087815260200190815260200160002060020160008088815260200190815260200160002060030154604051808581526020018473ffffffffffffffffffffffffffffffffffffffff1673ffffffffffffffffffffffffffffffffffffffff1681526020018060200183815260200180602001838103835285818154600181600116156101000203166002900481526020019150805460018160011615610100020316600290048015610b035780601f10610ad857610100808354040283529160200191610b03565b820191906000526020600020905b815481529060010190602001808311610ae657829003601f168201915b5050838103825260068152602001807f5550444154450000000000000000000000000000000000000000000000000000815250602001965050505050505060405180910390a15b505050565b60806040519081016040528060008152602001600073ffffffffffffffffffffffffffffffffffffffff16815260200160608152602001600081525090565b828054600181600116156101000203166002900490600052602060002090601f016020900481019282601f10610bcf57805160ff1916838001178555610bfd565b82800160010185558215610bfd579182015b82811115610bfc578251825591602001919060010190610be1565b5b509050610c0a9190610c8e565b5090565b828054600181600116156101000203166002900490600052602060002090601f016020900481019282601f10610c4f57803560ff1916838001178555610c7d565b82800160010185558215610c7d579182015b82811115610c7c578235825591602001919060010190610c61565b5b509050610c8a9190610c8e565b5090565b610cb091905b80821115610cac576000816000905550600101610c94565b5090565b9056fea165627a7a72305820bb6c1d0f1b996ef9e4a1e6338eaf1dffc7a1e370f0780dceb7bf18bc54935f130029",
  "source": "pragma solidity ^0.5.0;\n\ncontract StorageService {\n\n    struct Item {\n        uint256 id;\n        address owner;\n        string ipfsHash;\n        uint256 index;\n    }\n\n    event ItemEvent (\n        uint256 id,\n        address owner,\n        string ipfsHash,\n        uint256 index,\n        string eventType\n    );\n\n    // event DebugEvent (\n    //     string s,\n    //     uint i\n    // );\n\n    mapping(uint256 => Item) private itemMapping;\n\n    //An unordered index of the items that are active.\n    uint256[] private itemIndex;\n\n    //Don't want to reuse ids so just keep counting forever.\n    uint256 private nextId;\n\n\n    function create(string calldata _ipfsHash) external returns (uint256 id) {\n        \n        nextId++;\n\n        Item memory item = Item({\n            id : nextId,\n            owner: msg.sender,\n            ipfsHash : _ipfsHash,\n            index: itemIndex.length\n        });\n\n        //Put item in mapping\n        itemMapping[id] = item;\n\n\n        //Put id in index\n        itemIndex.push(id);\n\n\n        emit ItemEvent(\n            itemMapping[id].id,\n            itemMapping[id].owner,\n            itemMapping[id].ipfsHash,\n            itemMapping[id].index,\n            \"NEW\"\n        );\n\n\n        return itemMapping[id].id;\n    }\n\n    function read(uint256 _id) public view returns (address owner, string memory ipfsHash) {\n\n        Item storage item = itemMapping[_id];\n\n        return (item.owner, item.ipfsHash);\n    }\n\n    function update(uint256 _id, string calldata _ipfsHash) external {\n\n        if (keccak256(bytes(itemMapping[_id].ipfsHash)) != keccak256(bytes(_ipfsHash))) {\n            itemMapping[_id].ipfsHash = _ipfsHash;\n\n            emit ItemEvent(\n                itemMapping[_id].id,\n                itemMapping[_id].owner,\n                itemMapping[_id].ipfsHash,\n                itemMapping[_id].index,\n                \"UPDATE\"\n            );   \n        }\n    }\n\n\n    //Paging functionality\n    function count() external view returns (uint256 theCount) {\n        return itemIndex.length;\n    }\n\n    function readByIndex(uint256 _index) external view returns (address owner, string memory ipfsHash) {\n        \n        require(_index < itemIndex.length, \"No item at index\");\n\n        uint256 idAtIndex = itemIndex[_index];\n\n        require(idAtIndex >= 0, \"Invalid id at index\");\n\n        return read(idAtIndex);\n    }\n\n\n\n\n\n\n}\n\n\n",
  "sourcePath": "/home/ptoner/repos/baseball-smart-contract/contracts/StorageService.sol",
  "compiler": {
    "name": "solc",
    "version": "0.5.0+commit.1d4f565a.Emscripten.clang"
  },
  "schemaVersion": "3.0.0-beta.2",
  "updatedAt": "2018-11-25T19:53:23.287Z",
  "devdoc": {
    "methods": {}
  },
  "userdoc": {
    "methods": {}
  }
}